:100000000C9456000C9475000C9475000C947500BB
:100010000C9475000C9475000C9475000C9475008C
:100020000C9475000C9475000C9475000C9475007C
:100030000C9475000C94EE000C9475000C947500F3
:100040000C9475000C9475000C9475000C9475005C
:100050000C9475000C9475000C9475000C9475004C
:100060000C9475000C9475000C9475000C9475003C
:100070000C9475000C9475000C9475000C9475002C
:100080000C9475000C9475000C94750067027E0248
:100090009702B202CD02E80203031E034F03560388
:1000A0005D0364036B0372037903800311241FBE95
:1000B000CFEFD0E4DEBFCDBF11E0A0E0B1E0EAE5D4
:1000C000FBE000E00BBF02C007900D92A231B10728
:1000D000D9F721E0A2E1B1E001C01D92AF31B20732
:1000E000E1F70E94D1030C94AB050C940000CF9370
:1000F000DF9300D01F92CDB7DEB789837B836A83FD
:1001000089818A3031F48A819B81BC018DE00E9413
:10011000770080EC90E0FC018081882F90E0807275
:100120009927892BB1F386EC90E02981FC0120838B
:1001300080E090E00F900F900F90DF91CF910895A5
:10014000CF93DF93CDB7DEB781E890E02BE0FC01E1
:10015000208388E890E02DE730E0FC0131832083A4
:100160008FE690E022E0FC01208384E890E0FC012F
:100170001182108280910E0190910F01A0911001C7
:10018000B09111018093130190931401A093150174
:10019000B09316018FE590E02FE530E0F901208162
:1001A0002068FC0120830000DF91CF910895CF9358
:1001B000DF93CDB7DEB781E890E0FC01108200004C
:1001C000DF91CF910895CF93DF93CDB7DEB781E074
:1001D000809312010000DF91CF9108951F920F923A
:1001E00000905F000F92112400905B000F922F93FC
:1001F0003F934F935F936F937F938F939F93AF93AF
:10020000BF93EF93FF93CF93DF93CDB7DEB780918A
:10021000130190911401A0911501B091160101975D
:10022000A109B1098093130190931401A0931501C2
:10023000B09316018091130190911401A0911501C2
:10024000B0911601892B8A2B8B2B91F40E94E3002D
:1002500080910E0190910F01A0911001B0911101B8
:100260008093130190931401A0931501B09316018C
:100270000000DF91CF91FF91EF91BF91AF919F91DE
:100280008F917F916F915F914F913F912F910F903F
:1002900000925B000F9000925F000F901F901895E6
:1002A000CF93DF9300D000D0CDB7DEB769837A83D8
:1002B0008B839C8389819A81AB81BC8180930E0161
:1002C00090930F01A0931001B093110180910E0142
:1002D00090910F01A0911001B09111018093130131
:1002E00090931401A0931501B093160100000F9094
:1002F0000F900F900F90DF91CF9108950F931F9360
:10030000CF93DF9300D000D0CDB7DEB769837A8377
:100310008B839C838091170190911801A091190102
:10032000B0911A019C01AD0169817A818B819C8118
:100330000E941704882309F477C020E030E0A90167
:1003400069817A818B819C810E941704882351F4F2
:1003500081E990E021E930E0F90120812870FC0179
:10036000208309C081E990E021E930E0F901208192
:100370002360FC01208328E539E344E75FE36981DA
:100380007A818B819C810E941704882344F488E938
:1003900090E02FEF3FEFFC013183208334C020E059
:1003A00034E244EF56E469817A818B819C810E941A
:1003B0003905181634F488E990E0FC0111821082A6
:1003C00022C008E910E020E030E040E053E4698119
:1003D0007A818B819C810E943E05DC01CB019C01CE
:1003E000AD0160E074E284EF9AE40E941C04DC0139
:1003F000CB01BC01CD010E948E04DC01CB01019731
:10040000F8019183808384E990E0FC0111821082DD
:1004100089819A81AB81BC818093170190931801E7
:10042000A0931901B0931A0100000F900F900F9044
:100430000F90DF91CF911F910F910895CF93DF938C
:10044000CDB7DEB780E990E020E4FC01208381E9AC
:1004500090E02BE0FC01208360E070E0CB010E9483
:100460007E010000DF91CF910895CF93DF93CDB748
:10047000DEB780E990E0FC01108281E990E0FC01A8
:1004800010820000DF91CF910895CF93DF931F92E8
:10049000CDB7DEB780E290E0FC0180818095877067
:1004A000898380911B0190911C01CC01A0E0B0E0F8
:1004B00040E050E027E030E0841B950B2817390717
:1004C00008F4D7C08A5B9F4FFC010C940E0489810D
:1004D000823039F481E090E090931C0180931B01FD
:1004E000C9C08981843029F410921C0110921B012B
:1004F000C1C010921C0110921B01BCC089818230C6
:1005000039F482E090E090931C0180931B01B2C00B
:100510008981843029F410921C0110921B01AAC019
:1005200081E090E090931C0180931B01A3C089811E
:10053000823039F483E090E090931C0180931B019A
:1005400099C08981843039F481E090E090931C0156
:1005500080931B018FC082E090E090931C018093F8
:100560001B0188C08981823039F484E090E0909347
:100570001C0180931B017EC08981843039F482E0A4
:1005800090E090931C0180931B0174C083E090E085
:1005900090931C0180931B016DC08981823039F4D6
:1005A00085E090E090931C0180931B0163C08981DA
:1005B000843039F483E090E090931C0180931B0118
:1005C00059C084E090E090931C0180931B0152C0BD
:1005D0008981823039F486E090E090931C01809309
:1005E0001B0148C08981843039F484E090E0909305
:1005F0001C0180931B013EC085E090E090931C019C
:1006000080931B0137C08981823039F487E090E004
:1006100090931C0180931B012DC08981843039F493
:1006200085E090E090931C0180931B0123C086E03D
:1006300090E090931C0180931B011CC08981823043
:1006400039F487E090E090931C0180931B0112C065
:100650008981843039F486E090E090931C01809386
:100660001B0108C087E090E090931C0180931B0160
:1006700001C0000080911B0190911C01CC01A0E001
:10068000B0E040E050E027E030E0841B950B2817F5
:100690003907E8F1825B9F4FFC010C940E0464EA79
:1006A00070ED82E893E40E947E0131C06BE774ED47
:1006B00082E993E40E947E012AC064EA70ED84EA34
:1006C00093E40E947E0123C061E77DE98EEA93E412
:1006D0000E947E011CC060E070E084EC93E40E9404
:1006E0007E0115C060E070E08CED93E40E947E0115
:1006F0000EC064EA70EF86EF93E40E947E0107C0AB
:1007000060E070ED82E094E40E947E010000000051
:100710000F90DF91CF910895CF93DF931F92CDB7C4
:10072000DEB780E290E0FC0180818095877089834C
:1007300080911D0190911E01009719F0019781F0A1
:100740001EC08981813039F481E090E090931E01D0
:1007500080931D0114C010921E0110921D010FC044
:100760008981813029F410921E0110921D0106C06A
:1007700081E090E090931E0180931D010000809124
:100780001D0190911E01892B31F460E070E0CB01D6
:100790000E947E0101C0000000000F90DF91CF9108
:1007A0000895CF93DF931F92CDB7DEB781E290E03B
:1007B000FC01108282E290E02FEFFC01208384E2B2
:1007C00090E020E4FC01208385E290E020E4FC013D
:1007D00020830E941E0210921E0110921D01109291
:1007E0001C0110921B0168EC70E080E090E00E9418
:1007F00050010E94A00080E290E0FC018081809581
:10080000877089830E9445020E948C0300008091BA
:1008100012018823E1F310921201EDCFEE0FFF1FBA
:100820000024001C0BBE0790F691E02D09940E9455
:10083000C40408F481E008950E9430040C94FF047D
:100840000E94F80458F00E94F10440F029F45F3F40
:1008500029F00C94E80451110C9433050C94EE0427
:100860000E94100568F39923B1F3552391F3951B6A
:10087000550BBB27AA2762177307840738F09F5FC1
:100880005F4F220F331F441FAA1FA9F335D00E2E2E
:100890003AF0E0E832D091505040E695001CCAF79B
:1008A0002BD0FE2F29D0660F771F881FBB1F26175E
:1008B00037074807AB07B0E809F0BB0B802DBF0135
:1008C000FF2793585F4F3AF09E3F510578F00C9404
:1008D000E8040C9433055F3FE4F3983ED4F3869527
:1008E00077956795B795F7959F5FC9F7880F911D25
:1008F0009695879597F90895E1E0660F771F881F11
:10090000BB1F621773078407BA0720F0621B730BC3
:10091000840BBA0BEE1F88F7E09508950E949504AA
:100920006894B1110C94330508950E94180588F05D
:100930009F5798F0B92F9927B751B0F0E1F0660FA3
:10094000771F881F991F1AF0BA95C9F714C0B130E4
:1009500091F00E943205B1E008950C943205672FA2
:10096000782F8827B85F39F0B93FCCF38695779513
:100970006795B395D9F73EF49095809570956195FC
:100980007F4F8F4F9F4F0895990F0008550FAA0B67
:10099000E0E8FEEF16161706E807F907C0F0121692
:1009A0001306E407F50798F0621B730B840B950B95
:1009B00039F40A2661F0232B242B252B21F40895EA
:1009C0000A2609F4A140A6958FEF811D811D089587
:1009D00097F99F6780E870E060E008959FEF80ECF2
:1009E000089500240A941616170618060906089595
:1009F00000240A9412161306140605060895092EFB
:100A00000394000C11F4882352F0BB0F40F4BF2B69
:100A100011F460FF04C06F5F7F4F8F4F9F4F0895A9
:100A200057FD9058440F551F59F05F3F71F047959F
:100A3000880F97FB991F61F09F3F79F08795089584
:100A4000121613061406551FF2CF4695F1DF08C0A3
:100A5000161617061806991FF1CF869571056105C0
:100A600008940895E894BB2766277727CB0197F968
:100A700008950E94C40408F48FEF08950E94510560
:100A80000C94FF040E94F10438F00E94F80420F056
:100A9000952311F00C94E8040C94EE0411240C94AA
:100AA00033050E94100570F3959FC1F3950F50E038
:100AB000551F629FF001729FBB27F00DB11D639F10
:100AC000AA27F00DB11DAA1F649F6627B00DA11DB6
:100AD000661F829F2227B00DA11D621F739FB00D5C
:100AE000A11D621F839FA00D611D221F749F3327CC
:100AF000A00D611D231F849F600D211D822F762F65
:100B00006A2F11249F5750409AF0F1F088234AF041
:100B1000EE0FFF1FBB1F661F771F881F91505040AD
:100B2000A9F79E3F510580F00C94E8040C9433051E
:100B30005F3FE4F3983ED4F3869577956795B79534
:100B4000F795E7959F5FC1F7FE2B880F911D96954E
:0A0B5000879597F90895F894FFCFF8
:100B5A000000000200000000770000000000010011
:020B6A00000089
:00000001FF
