:100000000C9446000C9465000C9465000C946500FB
:100010000C9465000C9465000C9465000C946500CC
:100020000C9465000C9465000C9465000C946500BC
:100030000C9465000C94DE000C9465000C94650033
:100040000C9465000C9465000C9465000C9465009C
:100050000C9465000C9465000C9465000C9465008C
:100060000C9465000C9465000C9465000C9465007C
:100070000C9465000C9465000C9465000C9465006C
:100080000C9465000C9465000C94650011241FBE4F
:10009000CFEFD0E4DEBFCDBF11E0A0E0B1E0EAE0F9
:1000A000F9E000E00BBF02C007900D92A231B1074A
:1000B000D9F721E0A2E1B1E001C01D92AB31B20756
:1000C000E1F70E943D020C9483040C940000CF934E
:1000D000DF9300D01F92CDB7DEB789837B836A831D
:1000E00089818A3031F48A819B81BC018DE00E9434
:1000F000670080EC90E0FC018081882F90E08072A6
:100100009927892BB1F386EC90E02981FC012083AB
:1001100080E090E00F900F900F90DF91CF910895C5
:10012000CF93DF93CDB7DEB781E890E02BE0FC0101
:10013000208388E890E02DE730E0FC0131832083C4
:100140008FE690E022E0FC01208384E890E0FC014F
:100150001182108280910E0190910F01A0911001E7
:10016000B09111018093130190931401A093150194
:10017000B09316018FE590E02FE530E0F901208182
:100180002068FC0120830000DF91CF910895CF9378
:10019000DF93CDB7DEB781E890E0FC01108200006C
:1001A000DF91CF910895CF93DF93CDB7DEB781E094
:1001B000809312010000DF91CF9108951F920F925A
:1001C00000905F000F92112400905B000F922F931C
:1001D0003F934F935F936F937F938F939F93AF93CF
:1001E000BF93EF93FF93CF93DF93CDB7DEB78091AB
:1001F000130190911401A0911501B091160101977E
:10020000A109B1098093130190931401A0931501E2
:10021000B09316018091130190911401A0911501E2
:10022000B0911601892B8A2B8B2B91F40E94D3005D
:1002300080910E0190910F01A0911001B0911101D8
:100240008093130190931401A0931501B0931601AC
:100250000000DF91CF91FF91EF91BF91AF919F91FE
:100260008F917F916F915F914F913F912F910F905F
:1002700000925B000F9000925F000F901F90189506
:10028000CF93DF9300D000D0CDB7DEB769837A83F8
:100290008B839C8389819A81AB81BC8180930E0181
:1002A00090930F01A0931001B093110180910E0162
:1002B00090910F01A0911001B09111018093130151
:1002C00090931401A0931501B093160100000F90B4
:1002D0000F900F900F90DF91CF9108950F931F9380
:1002E000CF93DF9300D000D0CDB7DEB769837A8398
:1002F0008B839C838091170190911801A091190123
:10030000B0911A019C01AD0169817A818B819C8138
:100310000E94EF028823F1F020E030E0A90169811A
:100320007A818B819C810E94EF02882351F481E9BC
:1003300090E021E930E0F90120812870FC01208360
:1003400009C081E990E021E930E0F90120812360D2
:10035000FC01208328E539E344E75FE369817A8182
:100360008B819C810E94EF02882344F488E990E00D
:100370002FEF3FEFFC01318320833DC020E034E2CA
:1003800044EF56E469817A818B819C810E9411043B
:10039000181634F488E990E0FC01118210822BC019
:1003A00008E910E020E030E040E053E469817A8120
:1003B0008B819C810E941604DC01CB019C01AD0164
:1003C00060E074E284EF9AE40E94F402DC01CB0165
:1003D00020E030E040E85FE3BC01CD010E948202F2
:1003E000DC01CB01BC01CD010E946603DC01CB0125
:1003F000F8019183808384E990E0FC0111821082EE
:1004000089819A81AB81BC818093170190931801F7
:10041000A0931901B0931A0100000F900F900F9054
:100420000F90DF91CF911F910F910895CF93DF939C
:10043000CDB7DEB780E990E020E4FC01208381E9BC
:1004400090E02BE0FC01208360E070E0CB010E9493
:100450006E010000DF91CF910895CF93DF93CDB768
:10046000DEB780E990E0FC01108281E990E0FC01B8
:1004700010820000DF91CF910895CF93DF931F92F8
:10048000CDB7DEB781E290E02FEFFC01208382E25E
:1004900090E0FC01108284E290E020E4FC012083E3
:1004A00085E290E0FC01108280E290E0FC01808116
:1004B0008095877089838981813049F40E94160272
:1004C00064EA70ED82E893E40E946E01EDCF8981C9
:1004D000823049F40E9416026BE774ED82E993E4DE
:1004E0000E946E01E1CF8981843049F40E94160296
:1004F00064EA70ED84EA93E40E946E01D5CF0E9415
:100500002D02D2CF5058BB27AA270E949A020C94E2
:10051000D7030E94C90338F00E94D00320F039F4B9
:100520009F3F19F426F40C94C6030EF4E095E7FB04
:100530000C94C003E92F0E94E80358F3BA1762072E
:1005400073078407950720F079F4A6F50C940A0444
:100550000EF4E0950B2EBA2FA02D0B01B9019001DE
:100560000C01CA01A0011124FF27591B99F0593F22
:1005700050F4503E68F11A16F040A22F232F342F6A
:100580004427585FF3CF469537952795A795F040B8
:100590005395C9F77EF41F16BA0B620B730B840BCD
:1005A000BAF09150A1F0FF0FBB1F661F771F881F85
:1005B000C2F70EC0BA0F621F731F841F48F48795DD
:1005C00077956795B795F7959E3F08F0B0CF9395CF
:1005D000880F08F09927EE0F9795879508950E9448
:1005E0009C0308F481E008950E9408030C94D7034B
:1005F0000E94D00358F00E94C90340F029F45F3FE5
:1006000029F00C94C00351110C940B040C94C603F4
:100610000E94E80368F39923B1F3552391F3951BE6
:10062000550BBB27AA2762177307840738F09F5F13
:100630005F4F220F331F441FAA1FA9F335D00E2E80
:100640003AF0E0E832D091505040E695001CCAF7ED
:100650002BD0FE2F29D0660F771F881FBB1F2617B0
:1006600037074807AB07B0E809F0BB0B802DBF0187
:10067000FF2793585F4F3AF09E3F510578F00C9456
:10068000C0030C940B045F3FE4F3983ED4F38695CB
:1006900077956795B795F7959F5FC9F7880F911D77
:1006A0009695879597F90895E1E0660F771F881F63
:1006B000BB1F621773078407BA0720F0621B730B16
:1006C000840BBA0BEE1F88F7E09508950E946D0326
:1006D0006894B1110C940B0408950E94F00388F003
:1006E0009F5798F0B92F9927B751B0F0E1F0660FF6
:1006F000771F881F991F1AF0BA95C9F714C0B13037
:1007000091F00E940A04B1E008950C940A04672F46
:10071000782F8827B85F39F0B93FCCF38695779565
:100720006795B395D9F73EF490958095709561954E
:100730007F4F8F4F9F4F0895990F0008550FAA0BB9
:10074000E0E8FEEF16161706E807F907C0F01216E4
:100750001306E407F50798F0621B730B840B950BE7
:1007600039F40A2661F0232B242B252B21F408953C
:100770000A2609F4A140A6958FEF811D811D0895D9
:1007800097F99F6780E870E060E008959FEF80EC44
:10079000089500240A9416161706180609060895E7
:1007A00000240A9412161306140605060895092E4D
:1007B0000394000C11F4882352F0BB0F40F4BF2BBC
:1007C00011F460FF04C06F5F7F4F8F4F9F4F0895FC
:1007D00057FD9058440F551F59F05F3F71F04795F2
:1007E000880F97FB991F61F09F3F79F087950895D7
:1007F000121613061406551FF2CF4695F1DF08C0F6
:10080000161617061806991FF1CF86957105610512
:1008100008940895E894BB2766277727CB0197F9BA
:1008200008950E949C0308F48FEF08950E94290404
:100830000C94D7030E94C90338F00E94D00320F023
:10084000952311F00C94C0030C94C60311240C944E
:100850000B040E94E80370F3959FC1F3950F50E0DD
:10086000551F629FF001729FBB27F00DB11D639F62
:10087000AA27F00DB11DAA1F649F6627B00DA11D08
:10088000661F829F2227B00DA11D621F739FB00DAE
:10089000A11D621F839FA00D611D221F749F33271E
:1008A000A00D611D231F849F600D211D822F762FB7
:1008B0006A2F11249F5750409AF0F1F088234AF094
:1008C000EE0FFF1FBB1F661F771F881F9150504000
:1008D000A9F79E3F510580F00C94C0030C940B04C3
:1008E0005F3FE4F3983ED4F3869577956795B79587
:1008F000F795E7959F5FC1F7FE2B880F911D9695A1
:0A090000879597F90895F894FFCF4A
:10090A000000000200000000670000000000010073
:02091A000000DB
:00000001FF
