:100000000C945C000C947B000C947B000C947B00A3
:100010000C947B000C947B000C947B000C947B0074
:100020000C947B000C947B000C947B000C947B0064
:100030000C947B000C94F4000C947B000C947B00DB
:100040000C947B000C947B000C947B000C947B0044
:100050000C947B000C947B000C947B000C947B0034
:100060000C947B000C947B000C947B000C947B0024
:100070000C947B000C947B000C947B000C947B0014
:100080000C947B000C947B000C947B007302820226
:100090008902900297029E02A502AC02B302BA0244
:1000A000C102DD02E302EA02F102F802FF020603E6
:1000B0000D0314031B03220311241FBECFEFD0E452
:1000C000DEBFCDBF11E0A0E0B1E0E2E4FAE000E085
:1000D0000BBF02C007900D92A231B107D9F721E002
:1000E000A2E1B1E001C01D92AD31B207E1F70E947B
:1000F0002F030C941F050C940000CF93DF9300D0C6
:100100001F92CDB7DEB789837B836A8389818A306A
:1001100031F48A819B81BC018DE00E947D0080ECDE
:1001200090E0FC018081882F90E080729927892BD4
:10013000B1F386EC90E02981FC01208380E090E01F
:100140000F900F900F90DF91CF910895CF93DF9391
:10015000CDB7DEB781E890E02BE0FC01208388E892
:1001600090E02DE730E0FC01318320838FE690E0C2
:1001700022E0FC01208384E890E0FC0111821082DF
:1001800080910E0190910F01A0911001B091110189
:100190008093130190931401A0931501B09316015D
:1001A0008FE590E02FE530E0F90120812068FC0127
:1001B00020830000DF91CF910895CF93DF93CDB7D7
:1001C000DEB781E890E0FC0110820000DF91CF9162
:1001D0000895CF93DF93CDB7DEB781E0809312010E
:1001E0000000DF91CF9108951F920F9200905F0061
:1001F0000F92112400905B000F922F933F934F9327
:100200005F936F937F938F939F93AF93BF93EF937E
:10021000FF93CF93DF93CDB7DEB780911301909119
:100220001401A0911501B09116010197A109B1091E
:100230008093130190931401A0931501B0931601BC
:100240008091130190911401A0911501B0911601B4
:10025000892B8A2B8B2B91F40E94E90080910E014F
:1002600090910F01A0911001B091110180931301A1
:1002700090931401A0931501B09316010000DF9133
:10028000CF91FF91EF91BF91AF919F918F917F910E
:100290006F915F914F913F912F910F9000925B0072
:1002A0000F9000925F000F901F901895CF93DF93EF
:1002B00000D000D0CDB7DEB769837A838B839C836F
:1002C00089819A81AB81BC8180930E0190930F014B
:1002D000A0931001B093110180910E0190910F0134
:1002E000A0911001B091110180931301909314011A
:1002F000A0931501B093160100000F900F900F907E
:100300000F90DF91CF9108950F931F93CF93DF93B9
:1003100000D000D0CDB7DEB769837A838B839C830E
:100320008091170190911801A0911901B0911A01C3
:100330009C01AD0169817A818B819C810E948B0334
:10034000882309F477C020E030E0A90169817A812F
:100350008B819C810E948B03882351F481E990E07A
:1003600021E930E0F90120812870FC01208309C0D7
:1003700081E990E021E930E0F90120812360FC016E
:10038000208328E539E344E75FE369817A818B8143
:100390009C810E948B03882344F488E990E02FEF2E
:1003A0003FEFFC013183208334C020E034E244EF8E
:1003B00056E469817A818B819C810E94AD04181674
:1003C00034F488E990E0FC011182108222C008E92F
:1003D00010E020E030E040E053E469817A818B81D5
:1003E0009C810E94B204DC01CB019C01AD0160E064
:1003F00074E284EF9AE40E949003DC01CB01BC011B
:10040000CD010E940204DC01CB010197F801918328
:10041000808384E990E0FC011182108289819A81B5
:10042000AB81BC818093170190931801A0931901AF
:10043000B0931A0100000F900F900F900F90DF9172
:10044000CF911F910F910895CF93DF93CDB7DEB772
:1004500080E990E020E4FC01208381E990E02BE03A
:10046000FC01208360E070E0CB010E948401000069
:10047000DF91CF910895CF93DF93CDB7DEB780E9B9
:1004800090E0FC01108281E990E0FC011082000004
:10049000DF91CF910895CF93DF931F92CDB7DEB751
:1004A00080E290E0FC018081882F90E081709927A4
:1004B00021E0892B09F020E0298380911B01909194
:1004C0001C01CC01A0E0B0E040E050E02AE030E0C8
:1004D000841B950B2817390708F458C08A5B9F4F77
:1004E000FC010C9482038981813039F481E090E031
:1004F00090931C0180931B014AC010921C01109222
:100500001B0145C082E090E090931C0180931B0189
:100510003EC083E090E090931C0180931B0137C0A4
:1005200084E090E090931C0180931B0130C085E033
:1005300090E090931C0180931B0129C086E090E01D
:1005400090931C0180931B0122C087E090E0909360
:100550001C0180931B011BC088E090E090931C015C
:1005600080931B0114C089E090E090931C0180935C
:100570001B010DC08AE090E090931C0180931B0149
:1005800006C010921C0110921B0101C00000809156
:100590001B0190911C01CC01A0E0B0E040E050E0D4
:1005A0002AE030E0841B950B2817390708F451C066
:1005B0008F5A9F4FFC010C94820360E070E0CB01E6
:1005C0000E94840147C064EA70ED82E893E40E94CF
:1005D000840140C061E77DE98EEA93E40E948401D2
:1005E00039C06BE774ED82E993E40E94840132C064
:1005F00064EA70ED84EA93E40E9484012BC060E019
:1006000070E084EC93E40E94840124C060E070ED0B
:1006100082E094E40E9484011DC060E070E08CEDF3
:1006200093E40E94840116C064EA70EF86EF93E4BD
:100630000E9484010FC064EA70ED82E893E40E9496
:10064000840108C060E070ED82E094E40E948401BF
:1006500001C0000000000F90DF91CF910895CF936B
:10066000DF9300D0CDB7DEB781E290E0FC011082CD
:1006700082E290E02FEFFC01208384E290E020E40E
:10068000FC01208385E290E020E4FC0120830E94AD
:10069000240210921C0110921B0164EF71E080E0B3
:1006A00090E00E9456010E94A600198280E290E02C
:1006B000FC018081882F90E08170992721E0892BAF
:1006C00009F020E02A8380911B0190911C01892B65
:1006D00031F48981882329F40E944B0202C00E94D0
:1006E0004B028A81813011F481E089838A818823D9
:1006F00009F419820000809112018823E1F310921D
:100700001201D4CFEE0FFF1F0024001C0BBE079078
:10071000F691E02D09940E94380408F481E00895D0
:100720000E94A4030C9473040E946C0458F00E946D
:10073000650440F029F45F3F29F00C945C045111EA
:100740000C94A7040C9462040E94840468F3992317
:10075000B1F3552391F3951B550BBB27AA276217BD
:100760007307840738F09F5F5F4F220F331F441FCA
:10077000AA1FA9F335D00E2E3AF0E0E832D09150FE
:100780005040E695001CCAF72BD0FE2F29D0660FEB
:10079000771F881FBB1F261737074807AB07B0E82E
:1007A00009F0BB0B802DBF01FF2793585F4F3AF034
:1007B0009E3F510578F00C945C040C94A7045F3FB5
:1007C000E4F3983ED4F3869577956795B795F795BA
:1007D0009F5FC9F7880F911D9695879597F90895A2
:1007E000E1E0660F771F881FBB1F6217730784073E
:1007F000BA0720F0621B730B840BBA0BEE1F88F74D
:10080000E09508950E9409046894B1110C94A7041E
:1008100008950E948C0488F09F5798F0B92F99276B
:10082000B751B0F0E1F0660F771F881F991F1AF0DB
:10083000BA95C9F714C0B13091F00E94A604B1E096
:1008400008950C94A604672F782F8827B85F39F095
:10085000B93FCCF3869577956795B395D9F73EF474
:1008600090958095709561957F4F8F4F9F4F08951C
:10087000990F0008550FAA0BE0E8FEEF16161706B1
:10088000E807F907C0F012161306E407F50798F019
:10089000621B730B840B950B39F40A2661F0232B32
:1008A000242B252B21F408950A2609F4A140A695AE
:1008B0008FEF811D811D089597F99F6780E870E093
:1008C00060E008959FEF80EC089500240A941616C6
:1008D000170618060906089500240A94121613062E
:1008E000140605060895092E0394000C11F48823BC
:1008F00052F0BB0F40F4BF2B11F460FF04C06F5FD8
:100900007F4F8F4F9F4F089557FD9058440F551FAD
:1009100059F05F3F71F04795880F97FB991F61F081
:100920009F3F79F087950895121613061406551FF8
:10093000F2CF4695F1DF08C0161617061806991F64
:10094000F1CF86957105610508940895E894BB2759
:1009500066277727CB0197F908950E94380408F499
:100960008FEF08950E94C5040C9473040E946504DF
:1009700038F00E946C0420F0952311F00C945C0474
:100980000C94620411240C94A7040E94840470F354
:10099000959FC1F3950F50E0551F629FF001729F24
:1009A000BB27F00DB11D639FAA27F00DB11DAA1F33
:1009B000649F6627B00DA11D661F829F2227B00D80
:1009C000A11D621F739FB00DA11D621F839FA00D0B
:1009D000611D221F749F3327A00D611D231F849F5B
:1009E000600D211D822F762F6A2F11249F575040B2
:1009F0009AF0F1F088234AF0EE0FFF1FBB1F661F2D
:100A0000771F881F91505040A9F79E3F510580F0F5
:100A10000C945C040C94A7045F3FE4F3983ED4F379
:100A2000869577956795B795F795E7959F5FC1F799
:100A3000FE2B880F911D9695879597F90895F89448
:020A4000FFCFE6
:100A420000000002000000007D0000000000010024
:020A52000000A2
:00000001FF
